{
  "_format": "hh-sol-artifact-1",
  "contractName": "charlesWhitsteenProject",
  "sourceName": "contracts/charlesWhitsteenProject.sol",
  "abi": [
    {
      "inputs": [
        {
          "internalType": "string",
          "name": "_name",
          "type": "string"
        },
        {
          "internalType": "uint256",
          "name": "_maxPerTokenId",
          "type": "uint256"
        },
        {
          "internalType": "uint256",
          "name": "_maxSupply",
          "type": "uint256"
        },
        {
          "internalType": "address",
          "name": "_payments",
          "type": "address"
        }
      ],
      "stateMutability": "payable",
      "type": "constructor"
    },
    {
      "anonymous": false,
      "inputs": [
        {
          "indexed": true,
          "internalType": "address",
          "name": "account",
          "type": "address"
        },
        {
          "indexed": true,
          "internalType": "address",
          "name": "operator",
          "type": "address"
        },
        {
          "indexed": false,
          "internalType": "bool",
          "name": "approved",
          "type": "bool"
        }
      ],
      "name": "ApprovalForAll",
      "type": "event"
    },
    {
      "anonymous": false,
      "inputs": [
        {
          "indexed": true,
          "internalType": "address",
          "name": "previousOwner",
          "type": "address"
        },
        {
          "indexed": true,
          "internalType": "address",
          "name": "newOwner",
          "type": "address"
        }
      ],
      "name": "OwnershipTransferred",
      "type": "event"
    },
    {
      "anonymous": false,
      "inputs": [
        {
          "indexed": true,
          "internalType": "address",
          "name": "operator",
          "type": "address"
        },
        {
          "indexed": true,
          "internalType": "address",
          "name": "from",
          "type": "address"
        },
        {
          "indexed": true,
          "internalType": "address",
          "name": "to",
          "type": "address"
        },
        {
          "indexed": false,
          "internalType": "uint256[]",
          "name": "ids",
          "type": "uint256[]"
        },
        {
          "indexed": false,
          "internalType": "uint256[]",
          "name": "values",
          "type": "uint256[]"
        }
      ],
      "name": "TransferBatch",
      "type": "event"
    },
    {
      "anonymous": false,
      "inputs": [
        {
          "indexed": true,
          "internalType": "address",
          "name": "operator",
          "type": "address"
        },
        {
          "indexed": true,
          "internalType": "address",
          "name": "from",
          "type": "address"
        },
        {
          "indexed": true,
          "internalType": "address",
          "name": "to",
          "type": "address"
        },
        {
          "indexed": false,
          "internalType": "uint256",
          "name": "id",
          "type": "uint256"
        },
        {
          "indexed": false,
          "internalType": "uint256",
          "name": "value",
          "type": "uint256"
        }
      ],
      "name": "TransferSingle",
      "type": "event"
    },
    {
      "anonymous": false,
      "inputs": [
        {
          "indexed": false,
          "internalType": "string",
          "name": "value",
          "type": "string"
        },
        {
          "indexed": true,
          "internalType": "uint256",
          "name": "id",
          "type": "uint256"
        }
      ],
      "name": "URI",
      "type": "event"
    },
    {
      "inputs": [
        {
          "internalType": "address",
          "name": "account",
          "type": "address"
        },
        {
          "internalType": "uint256",
          "name": "id",
          "type": "uint256"
        }
      ],
      "name": "balanceOf",
      "outputs": [
        {
          "internalType": "uint256",
          "name": "",
          "type": "uint256"
        }
      ],
      "stateMutability": "view",
      "type": "function"
    },
    {
      "inputs": [
        {
          "internalType": "address[]",
          "name": "accounts",
          "type": "address[]"
        },
        {
          "internalType": "uint256[]",
          "name": "ids",
          "type": "uint256[]"
        }
      ],
      "name": "balanceOfBatch",
      "outputs": [
        {
          "internalType": "uint256[]",
          "name": "",
          "type": "uint256[]"
        }
      ],
      "stateMutability": "view",
      "type": "function"
    },
    {
      "inputs": [
        {
          "internalType": "address",
          "name": "account",
          "type": "address"
        },
        {
          "internalType": "address",
          "name": "operator",
          "type": "address"
        }
      ],
      "name": "isApprovedForAll",
      "outputs": [
        {
          "internalType": "bool",
          "name": "",
          "type": "bool"
        }
      ],
      "stateMutability": "view",
      "type": "function"
    },
    {
      "inputs": [
        {
          "internalType": "uint256",
          "name": "_tokenId",
          "type": "uint256"
        }
      ],
      "name": "isValid",
      "outputs": [
        {
          "internalType": "bool",
          "name": "",
          "type": "bool"
        }
      ],
      "stateMutability": "view",
      "type": "function"
    },
    {
      "inputs": [],
      "name": "maxPerTokenId",
      "outputs": [
        {
          "internalType": "uint256",
          "name": "",
          "type": "uint256"
        }
      ],
      "stateMutability": "view",
      "type": "function"
    },
    {
      "inputs": [],
      "name": "maxSupply",
      "outputs": [
        {
          "internalType": "uint256",
          "name": "",
          "type": "uint256"
        }
      ],
      "stateMutability": "view",
      "type": "function"
    },
    {
      "inputs": [
        {
          "internalType": "address",
          "name": "_recipient",
          "type": "address"
        },
        {
          "internalType": "uint256",
          "name": "_tokenId",
          "type": "uint256"
        },
        {
          "internalType": "uint256",
          "name": "_amount",
          "type": "uint256"
        }
      ],
      "name": "mint",
      "outputs": [],
      "stateMutability": "payable",
      "type": "function"
    },
    {
      "inputs": [],
      "name": "mintEnabled",
      "outputs": [
        {
          "internalType": "bool",
          "name": "",
          "type": "bool"
        }
      ],
      "stateMutability": "view",
      "type": "function"
    },
    {
      "inputs": [],
      "name": "mintPrice",
      "outputs": [
        {
          "internalType": "uint256",
          "name": "",
          "type": "uint256"
        }
      ],
      "stateMutability": "view",
      "type": "function"
    },
    {
      "inputs": [],
      "name": "owner",
      "outputs": [
        {
          "internalType": "address",
          "name": "",
          "type": "address"
        }
      ],
      "stateMutability": "view",
      "type": "function"
    },
    {
      "inputs": [],
      "name": "payments",
      "outputs": [
        {
          "internalType": "address payable",
          "name": "",
          "type": "address"
        }
      ],
      "stateMutability": "view",
      "type": "function"
    },
    {
      "inputs": [
        {
          "internalType": "bool",
          "name": "_mintEnabled",
          "type": "bool"
        }
      ],
      "name": "publicMintEnabled",
      "outputs": [],
      "stateMutability": "nonpayable",
      "type": "function"
    },
    {
      "inputs": [],
      "name": "renounceOwnership",
      "outputs": [],
      "stateMutability": "nonpayable",
      "type": "function"
    },
    {
      "inputs": [
        {
          "internalType": "address",
          "name": "from",
          "type": "address"
        },
        {
          "internalType": "address",
          "name": "to",
          "type": "address"
        },
        {
          "internalType": "uint256[]",
          "name": "ids",
          "type": "uint256[]"
        },
        {
          "internalType": "uint256[]",
          "name": "amounts",
          "type": "uint256[]"
        },
        {
          "internalType": "bytes",
          "name": "data",
          "type": "bytes"
        }
      ],
      "name": "safeBatchTransferFrom",
      "outputs": [],
      "stateMutability": "nonpayable",
      "type": "function"
    },
    {
      "inputs": [
        {
          "internalType": "address",
          "name": "from",
          "type": "address"
        },
        {
          "internalType": "address",
          "name": "to",
          "type": "address"
        },
        {
          "internalType": "uint256",
          "name": "id",
          "type": "uint256"
        },
        {
          "internalType": "uint256",
          "name": "amount",
          "type": "uint256"
        },
        {
          "internalType": "bytes",
          "name": "data",
          "type": "bytes"
        }
      ],
      "name": "safeTransferFrom",
      "outputs": [],
      "stateMutability": "nonpayable",
      "type": "function"
    },
    {
      "inputs": [
        {
          "internalType": "address",
          "name": "operator",
          "type": "address"
        },
        {
          "internalType": "bool",
          "name": "approved",
          "type": "bool"
        }
      ],
      "name": "setApprovalForAll",
      "outputs": [],
      "stateMutability": "nonpayable",
      "type": "function"
    },
    {
      "inputs": [
        {
          "internalType": "uint256",
          "name": "_tokenId",
          "type": "uint256"
        },
        {
          "internalType": "string",
          "name": "_uri",
          "type": "string"
        }
      ],
      "name": "setTokenUri",
      "outputs": [],
      "stateMutability": "nonpayable",
      "type": "function"
    },
    {
      "inputs": [
        {
          "internalType": "uint256",
          "name": "_tokenId",
          "type": "uint256"
        },
        {
          "internalType": "uint256",
          "name": "_daysNo",
          "type": "uint256"
        }
      ],
      "name": "setValidUntil",
      "outputs": [],
      "stateMutability": "nonpayable",
      "type": "function"
    },
    {
      "inputs": [
        {
          "internalType": "bytes4",
          "name": "interfaceId",
          "type": "bytes4"
        }
      ],
      "name": "supportsInterface",
      "outputs": [
        {
          "internalType": "bool",
          "name": "",
          "type": "bool"
        }
      ],
      "stateMutability": "view",
      "type": "function"
    },
    {
      "inputs": [
        {
          "internalType": "address",
          "name": "",
          "type": "address"
        },
        {
          "internalType": "uint256",
          "name": "",
          "type": "uint256"
        }
      ],
      "name": "tokenIdMints",
      "outputs": [
        {
          "internalType": "uint256",
          "name": "",
          "type": "uint256"
        }
      ],
      "stateMutability": "view",
      "type": "function"
    },
    {
      "inputs": [
        {
          "internalType": "uint256",
          "name": "",
          "type": "uint256"
        }
      ],
      "name": "totalSupply",
      "outputs": [
        {
          "internalType": "uint256",
          "name": "",
          "type": "uint256"
        }
      ],
      "stateMutability": "view",
      "type": "function"
    },
    {
      "inputs": [
        {
          "internalType": "address",
          "name": "newOwner",
          "type": "address"
        }
      ],
      "name": "transferOwnership",
      "outputs": [],
      "stateMutability": "nonpayable",
      "type": "function"
    },
    {
      "inputs": [
        {
          "internalType": "address",
          "name": "_addr",
          "type": "address"
        },
        {
          "internalType": "uint256",
          "name": "_amount",
          "type": "uint256"
        }
      ],
      "name": "updateWhitelist",
      "outputs": [],
      "stateMutability": "nonpayable",
      "type": "function"
    },
    {
      "inputs": [
        {
          "internalType": "uint256",
          "name": "_tokenId",
          "type": "uint256"
        }
      ],
      "name": "uri",
      "outputs": [
        {
          "internalType": "string",
          "name": "",
          "type": "string"
        }
      ],
      "stateMutability": "view",
      "type": "function"
    },
    {
      "inputs": [
        {
          "internalType": "uint256",
          "name": "",
          "type": "uint256"
        }
      ],
      "name": "validUntil",
      "outputs": [
        {
          "internalType": "uint256",
          "name": "",
          "type": "uint256"
        }
      ],
      "stateMutability": "view",
      "type": "function"
    },
    {
      "inputs": [],
      "name": "whitelistGiveaway",
      "outputs": [
        {
          "internalType": "bool",
          "name": "",
          "type": "bool"
        }
      ],
      "stateMutability": "view",
      "type": "function"
    },
    {
      "inputs": [
        {
          "internalType": "bool",
          "name": "_whitelistGiveaway",
          "type": "bool"
        }
      ],
      "name": "whitelistMintEnabled",
      "outputs": [],
      "stateMutability": "nonpayable",
      "type": "function"
    },
    {
      "inputs": [
        {
          "internalType": "address",
          "name": "",
          "type": "address"
        }
      ],
      "name": "whitelistedAddresses",
      "outputs": [
        {
          "internalType": "uint256",
          "name": "",
          "type": "uint256"
        }
      ],
      "stateMutability": "view",
      "type": "function"
    },
    {
      "inputs": [],
      "name": "withdraw",
      "outputs": [],
      "stateMutability": "payable",
      "type": "function"
    }
  ],
  "bytecode": "0x6080604052604051620023f2380380620023f28339810160408190526200002691620001a9565b8362000032816200007b565b506200003e3362000094565b662386f26fc10000600455600591909155600691909155600780546001600160a01b0319166001600160a01b039092169190911790555062000301565b805162000090906002906020840190620000e6565b5050565b600380546001600160a01b038381166001600160a01b0319831681179093556040519116919082907f8be0079c531659141344cd1fd0a4f28419497f9722a3daafe3b4186f6b6457e090600090a35050565b828054620000f490620002ae565b90600052602060002090601f01602090048101928262000118576000855562000163565b82601f106200013357805160ff191683800117855562000163565b8280016001018555821562000163579182015b828111156200016357825182559160200191906001019062000146565b506200017192915062000175565b5090565b5b8082111562000171576000815560010162000176565b80516001600160a01b0381168114620001a457600080fd5b919050565b60008060008060808587031215620001c057600080fd5b84516001600160401b0380821115620001d857600080fd5b818701915087601f830112620001ed57600080fd5b815181811115620002025762000202620002eb565b604051601f8201601f19908116603f011681019083821181831017156200022d576200022d620002eb565b81604052828152602093508a848487010111156200024a57600080fd5b600091505b828210156200026e57848201840151818301850152908301906200024f565b82821115620002805760008484830101525b809850505050808701519450505060408501519150620002a3606086016200018c565b905092959194509250565b600181811c90821680620002c357607f821691505b60208210811415620002e557634e487b7160e01b600052602260045260246000fd5b50919050565b634e487b7160e01b600052604160045260246000fd5b6120e180620003116000396000f3fe6080604052600436106101c15760003560e01c8063715018a6116100f7578063c872d0ef11610095578063f242432a11610064578063f242432a1461053b578063f2fde38b1461055b578063f577a5001461057b578063fde89198146105aa57600080fd5b8063c872d0ef1461049b578063d1239730146104bb578063d5abeb01146104dc578063e985e9c5146104f257600080fd5b8063a22cb465116100d1578063a22cb4651461040d578063a6d23e101461042d578063ac34cbea1461044d578063bd85b0391461046e57600080fd5b8063715018a6146103a65780638da5cb5b146103bb5780639c0f1235146103ed57600080fd5b80631a73293d116101645780633e0efa8a1161013e5780633e0efa8a1461032d5780634e1273f41461034357806357f7789e146103705780636817c76c1461039057600080fd5b80631a73293d146102e55780632eb2c2d6146103055780633ccfd60b1461032557600080fd5b806306c933d8116101a057806306c933d8146102565780630e89341c146102835780630f3516fa146102b0578063156e29f6146102d257600080fd5b8062fdd58e146101c657806301ffc9a7146101f9578063059c95d414610229575b600080fd5b3480156101d257600080fd5b506101e66101e1366004611a04565b6105e2565b6040519081526020015b60405180910390f35b34801561020557600080fd5b50610219610214366004611b4d565b610678565b60405190151581526020016101f0565b34801561023557600080fd5b506101e6610244366004611b87565b600a6020526000908152604090205481565b34801561026257600080fd5b506101e661027136600461187d565b60096020526000908152604090205481565b34801561028f57600080fd5b506102a361029e366004611b87565b6106ca565b6040516101f09190611d7f565b3480156102bc57600080fd5b506102d06102cb366004611b32565b61076c565b005b6102d06102e0366004611a2e565b610792565b3480156102f157600080fd5b506102d0610300366004611a04565b610b2f565b34801561031157600080fd5b506102d06103203660046118cb565b610b53565b6102d0610b9f565b34801561033957600080fd5b506101e660065481565b34801561034f57600080fd5b5061036361035e366004611a61565b610c0a565b6040516101f09190611d3e565b34801561037c57600080fd5b506102d061038b366004611ba0565b610d34565b34801561039c57600080fd5b506101e660045481565b3480156103b257600080fd5b506102d0610d5b565b3480156103c757600080fd5b506003546001600160a01b03165b6040516001600160a01b0390911681526020016101f0565b3480156103f957600080fd5b506102d0610408366004611b32565b610d6f565b34801561041957600080fd5b506102d06104283660046119da565b610d95565b34801561043957600080fd5b506007546103d5906001600160a01b031681565b34801561045957600080fd5b5060075461021990600160a81b900460ff1681565b34801561047a57600080fd5b506101e6610489366004611b87565b600b6020526000908152604090205481565b3480156104a757600080fd5b506102d06104b6366004611bf1565b610da4565b3480156104c757600080fd5b5060075461021990600160a01b900460ff1681565b3480156104e857600080fd5b506101e660055481565b3480156104fe57600080fd5b5061021961050d366004611898565b6001600160a01b03918216600090815260016020908152604080832093909416825291909152205460ff1690565b34801561054757600080fd5b506102d0610556366004611975565b610dd9565b34801561056757600080fd5b506102d061057636600461187d565b610e1e565b34801561058757600080fd5b50610219610596366004611b87565b6000908152600a6020526040902054421090565b3480156105b657600080fd5b506101e66105c5366004611a04565b600c60209081526000928352604080842090915290825290205481565b60006001600160a01b0383166106525760405162461bcd60e51b815260206004820152602a60248201527f455243313135353a2061646472657373207a65726f206973206e6f742061207660448201526930b634b21037bbb732b960b11b60648201526084015b60405180910390fd5b506000908152602081815260408083206001600160a01b03949094168352929052205490565b60006001600160e01b03198216636cdb3d1360e11b14806106a957506001600160e01b031982166303a24d0760e21b145b806106c457506301ffc9a760e01b6001600160e01b03198316145b92915050565b60008181526008602052604090208054606091906106e790611f2a565b80601f016020809104026020016040519081016040528092919081815260200182805461071390611f2a565b80156107605780601f1061073557610100808354040283529160200191610760565b820191906000526020600020905b81548152906001019060200180831161074357829003601f168201915b50505050509050919050565b610774610e94565b60078054911515600160a81b0260ff60a81b19909216919091179055565b3360009081526009602052604090205461085757600754600160a01b900460ff166107ff5760405162461bcd60e51b815260206004820152601d60248201527f4d696e74696e6720686173206e6f74206265656e20656e61626c65642e0000006044820152606401610649565b60045461080c9082611ef4565b34146108525760405162461bcd60e51b815260206004820152601560248201527424b731b7b93932b1ba1036b4b73a103b30b63ab29760591b6044820152606401610649565b610956565b600754600160a81b900460ff166108c05760405162461bcd60e51b815260206004820152602760248201527f57686974656c69737420676976656177617920686173206e6f74206265656e20604482015266195b98589b195960ca1b6064820152608401610649565b6000828152600a6020526040902054421015156001146109315760405162461bcd60e51b815260206004820152602660248201527f57686974656c697374206769766561776179206973206e6f206c6f6e676572206044820152653b30b634b21760d11b6064820152608401610649565b3360009081526009602052604081208054839290610950908490611f13565b90915550505b60018110156109a75760405162461bcd60e51b815260206004820152601b60248201527f706c6561736520656e74657220612076616c6964206e756d62657200000000006044820152606401610649565b6005546000838152600b60205260409020546109c4908390611edc565b1115610a1e5760405162461bcd60e51b8152602060048201526024808201527f536f7272792c20796f752068617665206578636565646564207468652073757060448201526338363c9760e11b6064820152608401610649565b600654336000908152600c60209081526040808320868452909152902054610a47908390611edc565b1115610abb5760405162461bcd60e51b815260206004820152603960248201527f536f7272792c20796f7520686176652065786365656465642074686520616c6f60448201527f7474656420616d6f756e742070657220746f6b656e2049442e000000000000006064820152608401610649565b6000828152600b602052604081208054839290610ad9908490611edc565b9091555050336000908152600c6020908152604080832085845290915281208054839290610b08908490611edc565b92505081905550610b2a83838360405180602001604052806000815250610eee565b505050565b610b37610e94565b6001600160a01b03909116600090815260096020526040902055565b6001600160a01b038516331480610b6f5750610b6f853361050d565b610b8b5760405162461bcd60e51b815260040161064990611d92565b610b988585858585611002565b5050505050565b610ba7610e94565b6007546040516000916001600160a01b03169047908381818185875af1925050503d8060008114610bf4576040519150601f19603f3d011682016040523d82523d6000602084013e610bf9565b606091505b5050905080610c0757600080fd5b50565b60608151835114610c6f5760405162461bcd60e51b815260206004820152602960248201527f455243313135353a206163636f756e747320616e6420696473206c656e677468604482015268040dad2e6dac2e8c6d60bb1b6064820152608401610649565b6000835167ffffffffffffffff811115610c8b57610c8b611fd9565b604051908082528060200260200182016040528015610cb4578160200160208202803683370190505b50905060005b8451811015610d2c57610cff858281518110610cd857610cd8611fc3565b6020026020010151858381518110610cf257610cf2611fc3565b60200260200101516105e2565b828281518110610d1157610d11611fc3565b6020908102919091010152610d2581611f92565b9050610cba565b509392505050565b610d3c610e94565b60008281526008602090815260409091208251610b2a928401906116bc565b610d63610e94565b610d6d60006111df565b565b610d77610e94565b60078054911515600160a01b0260ff60a01b19909216919091179055565b610da0338383611231565b5050565b610dac610e94565b610db98162015180611ef4565b610dc39042611edc565b6000928352600a60205260409092209190915550565b6001600160a01b038516331480610df55750610df5853361050d565b610e115760405162461bcd60e51b815260040161064990611d92565b610b988585858585611312565b610e26610e94565b6001600160a01b038116610e8b5760405162461bcd60e51b815260206004820152602660248201527f4f776e61626c653a206e6577206f776e657220697320746865207a65726f206160448201526564647265737360d01b6064820152608401610649565b610c07816111df565b6003546001600160a01b03163314610d6d5760405162461bcd60e51b815260206004820181905260248201527f4f776e61626c653a2063616c6c6572206973206e6f7420746865206f776e65726044820152606401610649565b6001600160a01b038416610f4e5760405162461bcd60e51b815260206004820152602160248201527f455243313135353a206d696e7420746f20746865207a65726f206164647265736044820152607360f81b6064820152608401610649565b336000610f5a8561143c565b90506000610f678561143c565b90506000868152602081815260408083206001600160a01b038b16845290915281208054879290610f99908490611edc565b909155505060408051878152602081018790526001600160a01b03808a1692600092918716917fc3d58168c5ae7397731d063d5bbf3d657854427343f4c083240f7aacaa2d0f62910160405180910390a4610ff983600089898989611487565b50505050505050565b81518351146110645760405162461bcd60e51b815260206004820152602860248201527f455243313135353a2069647320616e6420616d6f756e7473206c656e677468206044820152670dad2e6dac2e8c6d60c31b6064820152608401610649565b6001600160a01b03841661108a5760405162461bcd60e51b815260040161064990611e29565b3360005b84518110156111715760008582815181106110ab576110ab611fc3565b6020026020010151905060008583815181106110c9576110c9611fc3565b602090810291909101810151600084815280835260408082206001600160a01b038e1683529093529190912054909150818110156111195760405162461bcd60e51b815260040161064990611e6e565b6000838152602081815260408083206001600160a01b038e8116855292528083208585039055908b16825281208054849290611156908490611edc565b925050819055505050508061116a90611f92565b905061108e565b50846001600160a01b0316866001600160a01b0316826001600160a01b03167f4a39dc06d4c0dbc64b70af90fd698a233a518aa5d07e595d983b8c0526c8f7fb87876040516111c1929190611d51565b60405180910390a46111d78187878787876115f2565b505050505050565b600380546001600160a01b038381166001600160a01b0319831681179093556040519116919082907f8be0079c531659141344cd1fd0a4f28419497f9722a3daafe3b4186f6b6457e090600090a35050565b816001600160a01b0316836001600160a01b031614156112a55760405162461bcd60e51b815260206004820152602960248201527f455243313135353a2073657474696e6720617070726f76616c20737461747573604482015268103337b91039b2b63360b91b6064820152608401610649565b6001600160a01b03838116600081815260016020908152604080832094871680845294825291829020805460ff191686151590811790915591519182527f17307eab39ab6107e8899845ad3d59bd9653f200f220920489ca2b5937696c31910160405180910390a3505050565b6001600160a01b0384166113385760405162461bcd60e51b815260040161064990611e29565b3360006113448561143c565b905060006113518561143c565b90506000868152602081815260408083206001600160a01b038c168452909152902054858110156113945760405162461bcd60e51b815260040161064990611e6e565b6000878152602081815260408083206001600160a01b038d8116855292528083208985039055908a168252812080548892906113d1908490611edc565b909155505060408051888152602081018890526001600160a01b03808b16928c821692918816917fc3d58168c5ae7397731d063d5bbf3d657854427343f4c083240f7aacaa2d0f62910160405180910390a4611431848a8a8a8a8a611487565b505050505050505050565b6040805160018082528183019092526060916000919060208083019080368337019050509050828160008151811061147657611476611fc3565b602090810291909101015292915050565b6001600160a01b0384163b156111d75760405163f23a6e6160e01b81526001600160a01b0385169063f23a6e61906114cb9089908990889088908890600401611cf9565b602060405180830381600087803b1580156114e557600080fd5b505af1925050508015611515575060408051601f3d908101601f1916820190925261151291810190611b6a565b60015b6115c257611521611fef565b806308c379a0141561155b575061153661200b565b80611541575061155d565b8060405162461bcd60e51b81526004016106499190611d7f565b505b60405162461bcd60e51b815260206004820152603460248201527f455243313135353a207472616e7366657220746f206e6f6e20455243313135356044820152732932b1b2b4bb32b91034b6b83632b6b2b73a32b960611b6064820152608401610649565b6001600160e01b0319811663f23a6e6160e01b14610ff95760405162461bcd60e51b815260040161064990611de1565b6001600160a01b0384163b156111d75760405163bc197c8160e01b81526001600160a01b0385169063bc197c81906116369089908990889088908890600401611c9b565b602060405180830381600087803b15801561165057600080fd5b505af1925050508015611680575060408051601f3d908101601f1916820190925261167d91810190611b6a565b60015b61168c57611521611fef565b6001600160e01b0319811663bc197c8160e01b14610ff95760405162461bcd60e51b815260040161064990611de1565b8280546116c890611f2a565b90600052602060002090601f0160209004810192826116ea5760008555611730565b82601f1061170357805160ff1916838001178555611730565b82800160010185558215611730579182015b82811115611730578251825591602001919060010190611715565b5061173c929150611740565b5090565b5b8082111561173c5760008155600101611741565b600067ffffffffffffffff83111561176f5761176f611fd9565b604051611786601f8501601f191660200182611f65565b80915083815284848401111561179b57600080fd5b83836020830137600060208583010152509392505050565b80356001600160a01b03811681146117ca57600080fd5b919050565b600082601f8301126117e057600080fd5b813560206117ed82611eb8565b6040516117fa8282611f65565b8381528281019150858301600585901b8701840188101561181a57600080fd5b60005b858110156118395781358452928401929084019060010161181d565b5090979650505050505050565b803580151581146117ca57600080fd5b600082601f83011261186757600080fd5b61187683833560208501611755565b9392505050565b60006020828403121561188f57600080fd5b611876826117b3565b600080604083850312156118ab57600080fd5b6118b4836117b3565b91506118c2602084016117b3565b90509250929050565b600080600080600060a086880312156118e357600080fd5b6118ec866117b3565b94506118fa602087016117b3565b9350604086013567ffffffffffffffff8082111561191757600080fd5b61192389838a016117cf565b9450606088013591508082111561193957600080fd5b61194589838a016117cf565b9350608088013591508082111561195b57600080fd5b5061196888828901611856565b9150509295509295909350565b600080600080600060a0868803121561198d57600080fd5b611996866117b3565b94506119a4602087016117b3565b93506040860135925060608601359150608086013567ffffffffffffffff8111156119ce57600080fd5b61196888828901611856565b600080604083850312156119ed57600080fd5b6119f6836117b3565b91506118c260208401611846565b60008060408385031215611a1757600080fd5b611a20836117b3565b946020939093013593505050565b600080600060608486031215611a4357600080fd5b611a4c846117b3565b95602085013595506040909401359392505050565b60008060408385031215611a7457600080fd5b823567ffffffffffffffff80821115611a8c57600080fd5b818501915085601f830112611aa057600080fd5b81356020611aad82611eb8565b604051611aba8282611f65565b8381528281019150858301600585901b870184018b1015611ada57600080fd5b600096505b84871015611b0457611af0816117b3565b835260019690960195918301918301611adf565b5096505086013592505080821115611b1b57600080fd5b50611b28858286016117cf565b9150509250929050565b600060208284031215611b4457600080fd5b61187682611846565b600060208284031215611b5f57600080fd5b813561187681612095565b600060208284031215611b7c57600080fd5b815161187681612095565b600060208284031215611b9957600080fd5b5035919050565b60008060408385031215611bb357600080fd5b82359150602083013567ffffffffffffffff811115611bd157600080fd5b8301601f81018513611be257600080fd5b611b2885823560208401611755565b60008060408385031215611c0457600080fd5b50508035926020909101359150565b600081518084526020808501945080840160005b83811015611c4357815187529582019590820190600101611c27565b509495945050505050565b6000815180845260005b81811015611c7457602081850181015186830182015201611c58565b81811115611c86576000602083870101525b50601f01601f19169290920160200192915050565b6001600160a01b0386811682528516602082015260a060408201819052600090611cc790830186611c13565b8281036060840152611cd98186611c13565b90508281036080840152611ced8185611c4e565b98975050505050505050565b6001600160a01b03868116825285166020820152604081018490526060810183905260a060808201819052600090611d3390830184611c4e565b979650505050505050565b6020815260006118766020830184611c13565b604081526000611d646040830185611c13565b8281036020840152611d768185611c13565b95945050505050565b6020815260006118766020830184611c4e565b6020808252602f908201527f455243313135353a2063616c6c6572206973206e6f7420746f6b656e206f776e60408201526e195c881b9bdc88185c1c1c9bdd9959608a1b606082015260800190565b60208082526028908201527f455243313135353a204552433131353552656365697665722072656a656374656040820152676420746f6b656e7360c01b606082015260800190565b60208082526025908201527f455243313135353a207472616e7366657220746f20746865207a65726f206164604082015264647265737360d81b606082015260800190565b6020808252602a908201527f455243313135353a20696e73756666696369656e742062616c616e636520666f60408201526939103a3930b739b332b960b11b606082015260800190565b600067ffffffffffffffff821115611ed257611ed2611fd9565b5060051b60200190565b60008219821115611eef57611eef611fad565b500190565b6000816000190483118215151615611f0e57611f0e611fad565b500290565b600082821015611f2557611f25611fad565b500390565b600181811c90821680611f3e57607f821691505b60208210811415611f5f57634e487b7160e01b600052602260045260246000fd5b50919050565b601f8201601f1916810167ffffffffffffffff81118282101715611f8b57611f8b611fd9565b6040525050565b6000600019821415611fa657611fa6611fad565b5060010190565b634e487b7160e01b600052601160045260246000fd5b634e487b7160e01b600052603260045260246000fd5b634e487b7160e01b600052604160045260246000fd5b600060033d11156120085760046000803e5060005160e01c5b90565b600060443d10156120195790565b6040516003193d81016004833e81513d67ffffffffffffffff816024840111818411171561204957505050505090565b82850191508151818111156120615750505050505090565b843d870101602082850101111561207b5750505050505090565b61208a60208286010187611f65565b509095945050505050565b6001600160e01b031981168114610c0757600080fdfea264697066735822122058e1e50268f58745d7661874df8226b810cd8293939262116a7c5bdd014a0e5364736f6c63430008070033",
  "linkReferences": {},
  "deployedLinkReferences": {}
}